{
  "_format": "hh-sol-artifact-1",
  "contractName": "STLHarvest",
  "sourceName": "contracts/STLHarvest.sol",
  "abi": [
    {
      "inputs": [
        {
          "internalType": "address",
          "name": "tokenToUse",
          "type": "address"
        }
      ],
      "stateMutability": "nonpayable",
      "type": "constructor"
    },
    {
      "inputs": [],
      "name": "AccessControlBadConfirmation",
      "type": "error"
    },
    {
      "inputs": [
        {
          "internalType": "address",
          "name": "account",
          "type": "address"
        },
        {
          "internalType": "bytes32",
          "name": "neededRole",
          "type": "bytes32"
        }
      ],
      "name": "AccessControlUnauthorizedAccount",
      "type": "error"
    },
    {
      "inputs": [
        {
          "internalType": "address",
          "name": "owner",
          "type": "address"
        }
      ],
      "name": "OwnableInvalidOwner",
      "type": "error"
    },
    {
      "inputs": [
        {
          "internalType": "address",
          "name": "account",
          "type": "address"
        }
      ],
      "name": "OwnableUnauthorizedAccount",
      "type": "error"
    },
    {
      "anonymous": false,
      "inputs": [
        {
          "indexed": true,
          "internalType": "address",
          "name": "previousOwner",
          "type": "address"
        },
        {
          "indexed": true,
          "internalType": "address",
          "name": "newOwner",
          "type": "address"
        }
      ],
      "name": "OwnershipTransferred",
      "type": "event"
    },
    {
      "anonymous": false,
      "inputs": [
        {
          "indexed": true,
          "internalType": "bytes32",
          "name": "role",
          "type": "bytes32"
        },
        {
          "indexed": true,
          "internalType": "bytes32",
          "name": "previousAdminRole",
          "type": "bytes32"
        },
        {
          "indexed": true,
          "internalType": "bytes32",
          "name": "newAdminRole",
          "type": "bytes32"
        }
      ],
      "name": "RoleAdminChanged",
      "type": "event"
    },
    {
      "anonymous": false,
      "inputs": [
        {
          "indexed": true,
          "internalType": "bytes32",
          "name": "role",
          "type": "bytes32"
        },
        {
          "indexed": true,
          "internalType": "address",
          "name": "account",
          "type": "address"
        },
        {
          "indexed": true,
          "internalType": "address",
          "name": "sender",
          "type": "address"
        }
      ],
      "name": "RoleGranted",
      "type": "event"
    },
    {
      "anonymous": false,
      "inputs": [
        {
          "indexed": true,
          "internalType": "bytes32",
          "name": "role",
          "type": "bytes32"
        },
        {
          "indexed": true,
          "internalType": "address",
          "name": "account",
          "type": "address"
        },
        {
          "indexed": true,
          "internalType": "address",
          "name": "sender",
          "type": "address"
        }
      ],
      "name": "RoleRevoked",
      "type": "event"
    },
    {
      "anonymous": false,
      "inputs": [
        {
          "indexed": false,
          "internalType": "uint256",
          "name": "poolId",
          "type": "uint256"
        },
        {
          "indexed": false,
          "internalType": "uint256",
          "name": "amount",
          "type": "uint256"
        },
        {
          "components": [
            {
              "internalType": "uint256",
              "name": "id",
              "type": "uint256"
            },
            {
              "internalType": "uint256",
              "name": "totalUsers",
              "type": "uint256"
            },
            {
              "internalType": "uint256",
              "name": "totalPool",
              "type": "uint256"
            },
            {
              "internalType": "int256",
              "name": "status",
              "type": "int256"
            }
          ],
          "indexed": false,
          "internalType": "struct Pool",
          "name": "pool",
          "type": "tuple"
        },
        {
          "components": [
            {
              "internalType": "uint256",
              "name": "poolId",
              "type": "uint256"
            },
            {
              "internalType": "uint256",
              "name": "depositTotal",
              "type": "uint256"
            },
            {
              "internalType": "uint256",
              "name": "reward",
              "type": "uint256"
            },
            {
              "internalType": "uint256",
              "name": "userRewardId",
              "type": "uint256"
            },
            {
              "internalType": "address",
              "name": "user",
              "type": "address"
            }
          ],
          "indexed": false,
          "internalType": "struct UserReward",
          "name": "user",
          "type": "tuple"
        }
      ],
      "name": "poolDeposit",
      "type": "event"
    },
    {
      "anonymous": false,
      "inputs": [
        {
          "indexed": false,
          "internalType": "uint256",
          "name": "poolId",
          "type": "uint256"
        },
        {
          "components": [
            {
              "internalType": "uint256",
              "name": "id",
              "type": "uint256"
            },
            {
              "internalType": "uint256",
              "name": "totalUsers",
              "type": "uint256"
            },
            {
              "internalType": "uint256",
              "name": "totalPool",
              "type": "uint256"
            },
            {
              "internalType": "int256",
              "name": "status",
              "type": "int256"
            }
          ],
          "indexed": false,
          "internalType": "struct Pool",
          "name": "pool",
          "type": "tuple"
        },
        {
          "indexed": false,
          "internalType": "uint256",
          "name": "totalReward",
          "type": "uint256"
        }
      ],
      "name": "poolRewards",
      "type": "event"
    },
    {
      "anonymous": false,
      "inputs": [
        {
          "indexed": false,
          "internalType": "uint256",
          "name": "poolId",
          "type": "uint256"
        },
        {
          "components": [
            {
              "internalType": "uint256",
              "name": "id",
              "type": "uint256"
            },
            {
              "internalType": "uint256",
              "name": "totalUsers",
              "type": "uint256"
            },
            {
              "internalType": "uint256",
              "name": "totalPool",
              "type": "uint256"
            },
            {
              "internalType": "int256",
              "name": "status",
              "type": "int256"
            }
          ],
          "indexed": false,
          "internalType": "struct Pool",
          "name": "pool",
          "type": "tuple"
        }
      ],
      "name": "poolStarted",
      "type": "event"
    },
    {
      "inputs": [],
      "name": "DEFAULT_ADMIN_ROLE",
      "outputs": [
        {
          "internalType": "bytes32",
          "name": "",
          "type": "bytes32"
        }
      ],
      "stateMutability": "view",
      "type": "function"
    },
    {
      "inputs": [],
      "name": "USE_ROLE",
      "outputs": [
        {
          "internalType": "bytes32",
          "name": "",
          "type": "bytes32"
        }
      ],
      "stateMutability": "view",
      "type": "function"
    },
    {
      "inputs": [
        {
          "internalType": "uint256",
          "name": "",
          "type": "uint256"
        }
      ],
      "name": "_pools",
      "outputs": [
        {
          "internalType": "uint256",
          "name": "id",
          "type": "uint256"
        },
        {
          "internalType": "uint256",
          "name": "totalUsers",
          "type": "uint256"
        },
        {
          "internalType": "uint256",
          "name": "totalPool",
          "type": "uint256"
        },
        {
          "internalType": "int256",
          "name": "status",
          "type": "int256"
        }
      ],
      "stateMutability": "view",
      "type": "function"
    },
    {
      "inputs": [
        {
          "internalType": "uint256",
          "name": "",
          "type": "uint256"
        },
        {
          "internalType": "uint256",
          "name": "",
          "type": "uint256"
        }
      ],
      "name": "_usersRewardsPool",
      "outputs": [
        {
          "internalType": "uint256",
          "name": "poolId",
          "type": "uint256"
        },
        {
          "internalType": "uint256",
          "name": "depositTotal",
          "type": "uint256"
        },
        {
          "internalType": "uint256",
          "name": "reward",
          "type": "uint256"
        },
        {
          "internalType": "uint256",
          "name": "userRewardId",
          "type": "uint256"
        },
        {
          "internalType": "address",
          "name": "user",
          "type": "address"
        }
      ],
      "stateMutability": "view",
      "type": "function"
    },
    {
      "inputs": [],
      "name": "createPool",
      "outputs": [
        {
          "components": [
            {
              "internalType": "uint256",
              "name": "id",
              "type": "uint256"
            },
            {
              "internalType": "uint256",
              "name": "totalUsers",
              "type": "uint256"
            },
            {
              "internalType": "uint256",
              "name": "totalPool",
              "type": "uint256"
            },
            {
              "internalType": "int256",
              "name": "status",
              "type": "int256"
            }
          ],
          "internalType": "struct Pool",
          "name": "",
          "type": "tuple"
        }
      ],
      "stateMutability": "nonpayable",
      "type": "function"
    },
    {
      "inputs": [
        {
          "internalType": "uint256",
          "name": "poolId",
          "type": "uint256"
        },
        {
          "internalType": "uint256",
          "name": "amount",
          "type": "uint256"
        }
      ],
      "name": "deposit",
      "outputs": [],
      "stateMutability": "nonpayable",
      "type": "function"
    },
    {
      "inputs": [
        {
          "internalType": "address",
          "name": "user",
          "type": "address"
        },
        {
          "internalType": "uint256",
          "name": "poolId",
          "type": "uint256"
        }
      ],
      "name": "findUserInPool",
      "outputs": [
        {
          "components": [
            {
              "internalType": "uint256",
              "name": "poolId",
              "type": "uint256"
            },
            {
              "internalType": "uint256",
              "name": "depositTotal",
              "type": "uint256"
            },
            {
              "internalType": "uint256",
              "name": "reward",
              "type": "uint256"
            },
            {
              "internalType": "uint256",
              "name": "userRewardId",
              "type": "uint256"
            },
            {
              "internalType": "address",
              "name": "user",
              "type": "address"
            }
          ],
          "internalType": "struct UserReward",
          "name": "",
          "type": "tuple"
        }
      ],
      "stateMutability": "view",
      "type": "function"
    },
    {
      "inputs": [
        {
          "internalType": "bytes32",
          "name": "role",
          "type": "bytes32"
        }
      ],
      "name": "getRoleAdmin",
      "outputs": [
        {
          "internalType": "bytes32",
          "name": "",
          "type": "bytes32"
        }
      ],
      "stateMutability": "view",
      "type": "function"
    },
    {
      "inputs": [],
      "name": "getTotalPools",
      "outputs": [
        {
          "internalType": "uint256",
          "name": "",
          "type": "uint256"
        }
      ],
      "stateMutability": "view",
      "type": "function"
    },
    {
      "inputs": [
        {
          "internalType": "bytes32",
          "name": "role",
          "type": "bytes32"
        },
        {
          "internalType": "address",
          "name": "account",
          "type": "address"
        }
      ],
      "name": "grantRole",
      "outputs": [],
      "stateMutability": "nonpayable",
      "type": "function"
    },
    {
      "inputs": [
        {
          "internalType": "address",
          "name": "_to",
          "type": "address"
        }
      ],
      "name": "grantRoleUse",
      "outputs": [],
      "stateMutability": "nonpayable",
      "type": "function"
    },
    {
      "inputs": [
        {
          "internalType": "bytes32",
          "name": "role",
          "type": "bytes32"
        },
        {
          "internalType": "address",
          "name": "account",
          "type": "address"
        }
      ],
      "name": "hasRole",
      "outputs": [
        {
          "internalType": "bool",
          "name": "",
          "type": "bool"
        }
      ],
      "stateMutability": "view",
      "type": "function"
    },
    {
      "inputs": [
        {
          "internalType": "uint256",
          "name": "poolId",
          "type": "uint256"
        },
        {
          "internalType": "uint256",
          "name": "amount",
          "type": "uint256"
        }
      ],
      "name": "loadReward",
      "outputs": [],
      "stateMutability": "nonpayable",
      "type": "function"
    },
    {
      "inputs": [],
      "name": "owner",
      "outputs": [
        {
          "internalType": "address",
          "name": "",
          "type": "address"
        }
      ],
      "stateMutability": "view",
      "type": "function"
    },
    {
      "inputs": [],
      "name": "renounceOwnership",
      "outputs": [],
      "stateMutability": "nonpayable",
      "type": "function"
    },
    {
      "inputs": [
        {
          "internalType": "bytes32",
          "name": "role",
          "type": "bytes32"
        },
        {
          "internalType": "address",
          "name": "callerConfirmation",
          "type": "address"
        }
      ],
      "name": "renounceRole",
      "outputs": [],
      "stateMutability": "nonpayable",
      "type": "function"
    },
    {
      "inputs": [
        {
          "internalType": "bytes32",
          "name": "role",
          "type": "bytes32"
        },
        {
          "internalType": "address",
          "name": "account",
          "type": "address"
        }
      ],
      "name": "revokeRole",
      "outputs": [],
      "stateMutability": "nonpayable",
      "type": "function"
    },
    {
      "inputs": [
        {
          "internalType": "address",
          "name": "_to",
          "type": "address"
        }
      ],
      "name": "revokeRoleUse",
      "outputs": [],
      "stateMutability": "nonpayable",
      "type": "function"
    },
    {
      "inputs": [
        {
          "internalType": "bytes4",
          "name": "interfaceId",
          "type": "bytes4"
        }
      ],
      "name": "supportsInterface",
      "outputs": [
        {
          "internalType": "bool",
          "name": "",
          "type": "bool"
        }
      ],
      "stateMutability": "view",
      "type": "function"
    },
    {
      "inputs": [
        {
          "internalType": "address",
          "name": "newOwner",
          "type": "address"
        }
      ],
      "name": "transferOwnership",
      "outputs": [],
      "stateMutability": "nonpayable",
      "type": "function"
    },
    {
      "inputs": [
        {
          "internalType": "uint256",
          "name": "poolId",
          "type": "uint256"
        },
        {
          "internalType": "uint256",
          "name": "totalUsers",
          "type": "uint256"
        },
        {
          "internalType": "uint256",
          "name": "totalPool",
          "type": "uint256"
        },
        {
          "internalType": "int256",
          "name": "status",
          "type": "int256"
        }
      ],
      "name": "updatePool",
      "outputs": [],
      "stateMutability": "nonpayable",
      "type": "function"
    },
    {
      "inputs": [
        {
          "internalType": "uint256",
          "name": "poolId",
          "type": "uint256"
        }
      ],
      "name": "withDraw",
      "outputs": [],
      "stateMutability": "nonpayable",
      "type": "function"
    }
  ],
  "bytecode": "0x60806040523480156200001157600080fd5b506040516200336b3803806200336b8339818101604052810190620000379190620006e4565b33600073ffffffffffffffffffffffffffffffffffffffff168173ffffffffffffffffffffffffffffffffffffffff1603620000ad5760006040517f1e4fbdf7000000000000000000000000000000000000000000000000000000008152600401620000a4919062000727565b60405180910390fd5b620000be816200016f60201b60201c565b5033600260006101000a81548173ffffffffffffffffffffffffffffffffffffffff021916908373ffffffffffffffffffffffffffffffffffffffff160217905550620001156000801b336200023360201b60201c565b5062000127336200033660201b60201c565b80600660006101000a81548173ffffffffffffffffffffffffffffffffffffffff021916908373ffffffffffffffffffffffffffffffffffffffff1602179055505062000881565b60008060009054906101000a900473ffffffffffffffffffffffffffffffffffffffff169050816000806101000a81548173ffffffffffffffffffffffffffffffffffffffff021916908373ffffffffffffffffffffffffffffffffffffffff1602179055508173ffffffffffffffffffffffffffffffffffffffff168173ffffffffffffffffffffffffffffffffffffffff167f8be0079c531659141344cd1fd0a4f28419497f9722a3daafe3b4186f6b6457e060405160405180910390a35050565b60006200024783836200046260201b60201c565b6200032b57600180600085815260200190815260200160002060000160008473ffffffffffffffffffffffffffffffffffffffff1673ffffffffffffffffffffffffffffffffffffffff16815260200190815260200160002060006101000a81548160ff021916908315150217905550620002c7620004cd60201b60201c565b73ffffffffffffffffffffffffffffffffffffffff168273ffffffffffffffffffffffffffffffffffffffff16847f2f8788117e7eff1d82e926ec794901d17c78024a50270940304540a733656f0d60405160405180910390a46001905062000330565b600090505b92915050565b62000346620004d560201b60201c565b600073ffffffffffffffffffffffffffffffffffffffff168173ffffffffffffffffffffffffffffffffffffffff1603620003b8576040517f08c379a0000000000000000000000000000000000000000000000000000000008152600401620003af90620007a5565b60405180910390fd5b620003ea7fc95fb6d1b7a486ccf74d60bc813ac64df792d1b1dde36e9f5c4832bf907762fd826200046260201b60201c565b156200042d576040517f08c379a0000000000000000000000000000000000000000000000000000000008152600401620004249062000817565b60405180910390fd5b6200045f7fc95fb6d1b7a486ccf74d60bc813ac64df792d1b1dde36e9f5c4832bf907762fd826200057760201b60201c565b50565b60006001600084815260200190815260200160002060000160008373ffffffffffffffffffffffffffffffffffffffff1673ffffffffffffffffffffffffffffffffffffffff16815260200190815260200160002060009054906101000a900460ff16905092915050565b600033905090565b620004e5620004cd60201b60201c565b73ffffffffffffffffffffffffffffffffffffffff166200050b620005b160201b60201c565b73ffffffffffffffffffffffffffffffffffffffff1614620005755762000537620004cd60201b60201c565b6040517f118cdaa70000000000000000000000000000000000000000000000000000000081526004016200056c919062000727565b60405180910390fd5b565b6200058882620005da60201b60201c565b6200059981620005fa60201b60201c565b620005ab83836200023360201b60201c565b50505050565b60008060009054906101000a900473ffffffffffffffffffffffffffffffffffffffff16905090565b600060016000838152602001908152602001600020600101549050919050565b6200061b816200060f620004cd60201b60201c565b6200061e60201b60201c565b50565b6200063082826200046260201b60201c565b620006765780826040517fe2517d3f0000000000000000000000000000000000000000000000000000000081526004016200066d92919062000854565b60405180910390fd5b5050565b600080fd5b600073ffffffffffffffffffffffffffffffffffffffff82169050919050565b6000620006ac826200067f565b9050919050565b620006be816200069f565b8114620006ca57600080fd5b50565b600081519050620006de81620006b3565b92915050565b600060208284031215620006fd57620006fc6200067a565b5b60006200070d84828501620006cd565b91505092915050565b62000721816200069f565b82525050565b60006020820190506200073e600083018462000716565b92915050565b600082825260208201905092915050565b7f496e76616c696420616464726573730000000000000000000000000000000000600082015250565b60006200078d600f8362000744565b91506200079a8262000755565b602082019050919050565b60006020820190508181036000830152620007c0816200077e565b9050919050565b7f526f6c6520616c7265616479206772616e746564000000000000000000000000600082015250565b6000620007ff60148362000744565b91506200080c82620007c7565b602082019050919050565b600060208201905081810360008301526200083281620007f0565b9050919050565b6000819050919050565b6200084e8162000839565b82525050565b60006040820190506200086b600083018562000716565b6200087a602083018462000843565b9392505050565b612ada80620008916000396000f3fe608060405234801561001057600080fd5b50600436106101425760003560e01c8063a8497311116100b8578063d547741f1161007c578063d547741f14610352578063dd30afdb1461036e578063e2bbb158146103a2578063e39d21d2146103be578063e5438a37146103ee578063f2fde38b1461040a57610142565b8063a8497311146102c2578063aa91dd8d146102de578063b24e67e4146102fc578063b787472714610318578063d3ffe67a1461033457610142565b80633997663c1161010a5780633997663c146101fb578063715018a61461022e5780638da5cb5b1461023857806391d14854146102565780639a06b11314610286578063a217fddf146102a457610142565b806301ffc9a71461014757806314174f3314610177578063248a9ca3146101935780632f2ff15d146101c357806336568abe146101df575b600080fd5b610161600480360381019061015c9190611de5565b610426565b60405161016e9190611e2d565b60405180910390f35b610191600480360381019061018c9190611e7e565b6104a0565b005b6101ad60048036038101906101a89190611ee1565b610664565b6040516101ba9190611f1d565b60405180910390f35b6101dd60048036038101906101d89190611f96565b610684565b005b6101f960048036038101906101f49190611f96565b6106a6565b005b61021560048036038101906102109190611e7e565b610721565b6040516102259493929190611ffe565b60405180910390f35b610236610751565b005b610240610765565b60405161024d9190612052565b60405180910390f35b610270600480360381019061026b9190611f96565b61078e565b60405161027d9190611e2d565b60405180910390f35b61028e6107f9565b60405161029b91906120e0565b60405180910390f35b6102ac610948565b6040516102b99190611f1d565b60405180910390f35b6102dc60048036038101906102d791906120fb565b61094f565b005b6102e66109ed565b6040516102f39190611f1d565b60405180910390f35b61031660048036038101906103119190612154565b610a11565b005b610332600480360381019061032d91906121bb565b610a93565b005b61033c610fdf565b60405161034991906121fb565b60405180910390f35b61036c60048036038101906103679190611f96565b610fe9565b005b610388600480360381019061038391906121bb565b61100b565b604051610399959493929190612216565b60405180910390f35b6103bc60048036038101906103b791906121bb565b61106e565b005b6103d860048036038101906103d39190612269565b61156f565b6040516103e59190612320565b60405180910390f35b610408600480360381019061040391906120fb565b611781565b005b610424600480360381019061041f91906120fb565b61188f565b005b60007f7965db0b000000000000000000000000000000000000000000000000000000007bffffffffffffffffffffffffffffffffffffffffffffffffffffffff1916827bffffffffffffffffffffffffffffffffffffffffffffffffffffffff19161480610499575061049882611915565b5b9050919050565b60006104ac338361156f565b905060008160200151116104f5576040517f08c379a00000000000000000000000000000000000000000000000000000000081526004016104ec90612398565b60405180910390fd5b60008160400151826020015161050b91906123e7565b9050600660009054906101000a900473ffffffffffffffffffffffffffffffffffffffff1673ffffffffffffffffffffffffffffffffffffffff1663a9059cbb33836040518363ffffffff1660e01b815260040161056a92919061241b565b6020604051808303816000875af1158015610589573d6000803e3d6000fd5b505050506040513d601f19601f820116820180604052508101906105ad9190612470565b506000826020018181525050600082604001818152505081600560008581526020019081526020016000206000846060015181526020019081526020016000206000820151816000015560208201518160010155604082015181600201556060820151816003015560808201518160040160006101000a81548173ffffffffffffffffffffffffffffffffffffffff021916908373ffffffffffffffffffffffffffffffffffffffff160217905550905050505050565b600060016000838152602001908152602001600020600101549050919050565b61068d82610664565b6106968161197f565b6106a08383611993565b50505050565b6106ae611a84565b73ffffffffffffffffffffffffffffffffffffffff168173ffffffffffffffffffffffffffffffffffffffff1614610712576040517f6697b23200000000000000000000000000000000000000000000000000000000815260040160405180910390fd5b61071c8282611a8c565b505050565b60046020528060005260406000206000915090508060000154908060010154908060020154908060030154905084565b610759611b7f565b6107636000611c06565b565b60008060009054906101000a900473ffffffffffffffffffffffffffffffffffffffff16905090565b60006001600084815260200190815260200160002060000160008373ffffffffffffffffffffffffffffffffffffffff1673ffffffffffffffffffffffffffffffffffffffff16815260200190815260200160002060009054906101000a900460ff16905092915050565b610801611d1b565b7fc95fb6d1b7a486ccf74d60bc813ac64df792d1b1dde36e9f5c4832bf907762fd61082b8161197f565b6040518060800160405280600354815260200160008152602001600081526020016001815250600460006003548152602001908152602001600020600082015181600001556020820151816001015560408201518160020155606082015181600301559050507ff95cb534e70e5db9fa267ede38cbf333195851ca83ed4ce5bca1b4d25a5cad706003546004600060035481526020019081526020016000206040516108d8929190612575565b60405180910390a16001600360008282546108f391906123e7565b9250508190555060046000600354815260200190815260200160002060405180608001604052908160008201548152602001600182015481526020016002820154815260200160038201548152505091505090565b6000801b81565b610957611b7f565b6109817fc95fb6d1b7a486ccf74d60bc813ac64df792d1b1dde36e9f5c4832bf907762fd8261078e565b6109c0576040517f08c379a00000000000000000000000000000000000000000000000000000000081526004016109b790612610565b60405180910390fd5b6109ea7fc95fb6d1b7a486ccf74d60bc813ac64df792d1b1dde36e9f5c4832bf907762fd82610fe9565b50565b7fc95fb6d1b7a486ccf74d60bc813ac64df792d1b1dde36e9f5c4832bf907762fd81565b7fc95fb6d1b7a486ccf74d60bc813ac64df792d1b1dde36e9f5c4832bf907762fd610a3b8161197f565b8360046000878152602001908152602001600020600101819055508260046000878152602001908152602001600020600201819055508160046000878152602001908152602001600020600301819055505050505050565b7fc95fb6d1b7a486ccf74d60bc813ac64df792d1b1dde36e9f5c4832bf907762fd610abd8161197f565b82600160046000838152602001908152602001600020600301541215610b18576040517f08c379a0000000000000000000000000000000000000000000000000000000008152600401610b0f906126a2565b60405180910390fd5b33836000600660009054906101000a900473ffffffffffffffffffffffffffffffffffffffff1673ffffffffffffffffffffffffffffffffffffffff1663dd62ed3e84306040518363ffffffff1660e01b8152600401610b799291906126c2565b602060405180830381865afa158015610b96573d6000803e3d6000fd5b505050506040513d601f19601f82011682018060405250810190610bba9190612700565b905081811015610bff576040517f08c379a0000000000000000000000000000000000000000000000000000000008152600401610bf690612779565b60405180910390fd5b33866000600660009054906101000a900473ffffffffffffffffffffffffffffffffffffffff1673ffffffffffffffffffffffffffffffffffffffff166370a08231846040518263ffffffff1660e01b8152600401610c5e9190612052565b602060405180830381865afa158015610c7b573d6000803e3d6000fd5b505050506040513d601f19601f82011682018060405250810190610c9f9190612700565b905081811015610ce4576040517f08c379a0000000000000000000000000000000000000000000000000000000008152600401610cdb906127e5565b60405180910390fd5b600660009054906101000a900473ffffffffffffffffffffffffffffffffffffffff1673ffffffffffffffffffffffffffffffffffffffff166323b872dd33308c6040518463ffffffff1660e01b8152600401610d4393929190612805565b6020604051808303816000875af1158015610d62573d6000803e3d6000fd5b505050506040513d601f19601f82011682018060405250810190610d869190612470565b506000805b600460008d815260200190815260200160002060010154811015610f84576000600560008e81526020019081526020016000206000838152602001908152602001600020600101541115610f7157600460008d8152602001908152602001600020600201546064600560008f8152602001908152602001600020600084815260200190815260200160002060010154610e24919061283c565b610e2e91906128ad565b915060648b83610e3e919061283c565b610e4891906128ad565b9150600660009054906101000a900473ffffffffffffffffffffffffffffffffffffffff1673ffffffffffffffffffffffffffffffffffffffff1663095ea7b3600560008f8152602001908152602001600020600084815260200190815260200160002060040160009054906101000a900473ffffffffffffffffffffffffffffffffffffffff16846040518363ffffffff1660e01b8152600401610eee92919061241b565b6020604051808303816000875af1158015610f0d573d6000803e3d6000fd5b505050506040513d601f19601f82011682018060405250810190610f319190612470565b5081600560008e815260200190815260200160002060008381526020019081526020016000206002016000828254610f6991906123e7565b925050819055505b8080610f7c906128de565b915050610d8b565b507fd2a7fbb4e4f370911ed608b77c2bf962b1ed38a8bc17de23c22047902560c86b8b600460008e81526020019081526020016000208c604051610fca93929190612926565b60405180910390a15050505050505050505050565b6000600354905090565b610ff282610664565b610ffb8161197f565b6110058383611a8c565b50505050565b6005602052816000526040600020602052806000526040600020600091509150508060000154908060010154908060020154908060030154908060040160009054906101000a900473ffffffffffffffffffffffffffffffffffffffff16905085565b33816000600660009054906101000a900473ffffffffffffffffffffffffffffffffffffffff1673ffffffffffffffffffffffffffffffffffffffff1663dd62ed3e84306040518363ffffffff1660e01b81526004016110cf9291906126c2565b602060405180830381865afa1580156110ec573d6000803e3d6000fd5b505050506040513d601f19601f820116820180604052508101906111109190612700565b905081811015611155576040517f08c379a000000000000000000000000000000000000000000000000000000000815260040161114c90612779565b60405180910390fd5b33846000600660009054906101000a900473ffffffffffffffffffffffffffffffffffffffff1673ffffffffffffffffffffffffffffffffffffffff166370a08231846040518263ffffffff1660e01b81526004016111b49190612052565b602060405180830381865afa1580156111d1573d6000803e3d6000fd5b505050506040513d601f19601f820116820180604052508101906111f59190612700565b90508181101561123a576040517f08c379a0000000000000000000000000000000000000000000000000000000008152600401611231906127e5565b60405180910390fd5b87600160046000838152602001908152602001600020600301541215611295576040517f08c379a000000000000000000000000000000000000000000000000000000000815260040161128c906126a2565b60405180910390fd5b600660009054906101000a900473ffffffffffffffffffffffffffffffffffffffff1673ffffffffffffffffffffffffffffffffffffffff166323b872dd33308b6040518463ffffffff1660e01b81526004016112f493929190612805565b6020604051808303816000875af1158015611313573d6000803e3d6000fd5b505050506040513d601f19601f820116820180604052508101906113379190612470565b506000611344338b61156f565b905088600460008c8152602001908152602001600020600201600082825461136c91906123e7565b925050819055506000600190503073ffffffffffffffffffffffffffffffffffffffff16826080015173ffffffffffffffffffffffffffffffffffffffff16036113b557600090505b6000151581151503611424578a82600001818152505033826080019073ffffffffffffffffffffffffffffffffffffffff16908173ffffffffffffffffffffffffffffffffffffffff1681525050600460008c8152602001908152602001600020600101548260600181815250505b898260200181815161143691906123e7565b9150818152505081600560008d81526020019081526020016000206000846060015181526020019081526020016000206000820151816000015560208201518160010155604082015181600201556060820151816003015560808201518160040160006101000a81548173ffffffffffffffffffffffffffffffffffffffff021916908373ffffffffffffffffffffffffffffffffffffffff1602179055509050506000151581151503611513576001600460008d8152602001908152602001600020600101600082825461150b91906123e7565b925050819055505b7f8c58cfd962bac754f2b9c138c256f562adda5923db8145d9fdcb1be8f0ddac938b8b600460008f81526020019081526020016000208560405161155a949392919061295d565b60405180910390a15050505050505050505050565b611577611d43565b816001600460008381526020019081526020016000206003015412156115d2576040517f08c379a00000000000000000000000000000000000000000000000000000000081526004016115c9906126a2565b60405180910390fd5b60005b6004600085815260200190815260200160002060010154811015611735578473ffffffffffffffffffffffffffffffffffffffff1660056000868152602001908152602001600020600083815260200190815260200160002060040160009054906101000a900473ffffffffffffffffffffffffffffffffffffffff1673ffffffffffffffffffffffffffffffffffffffff1603611722576005600085815260200190815260200160002060008281526020019081526020016000206040518060a0016040529081600082015481526020016001820154815260200160028201548152602001600382015481526020016004820160009054906101000a900473ffffffffffffffffffffffffffffffffffffffff1673ffffffffffffffffffffffffffffffffffffffff1673ffffffffffffffffffffffffffffffffffffffff168152505092505061177a565b808061172d906128de565b9150506115d5565b506040518060a00160405280600081526020016000815260200160008152602001600081526020013073ffffffffffffffffffffffffffffffffffffffff1681525091505b5092915050565b611789611b7f565b600073ffffffffffffffffffffffffffffffffffffffff168173ffffffffffffffffffffffffffffffffffffffff16036117f8576040517f08c379a00000000000000000000000000000000000000000000000000000000081526004016117ef906129ef565b60405180910390fd5b6118227fc95fb6d1b7a486ccf74d60bc813ac64df792d1b1dde36e9f5c4832bf907762fd8261078e565b15611862576040517f08c379a000000000000000000000000000000000000000000000000000000000815260040161185990612a5b565b60405180910390fd5b61188c7fc95fb6d1b7a486ccf74d60bc813ac64df792d1b1dde36e9f5c4832bf907762fd82610684565b50565b611897611b7f565b600073ffffffffffffffffffffffffffffffffffffffff168173ffffffffffffffffffffffffffffffffffffffff16036119095760006040517f1e4fbdf70000000000000000000000000000000000000000000000000000000081526004016119009190612052565b60405180910390fd5b61191281611c06565b50565b60007f01ffc9a7000000000000000000000000000000000000000000000000000000007bffffffffffffffffffffffffffffffffffffffffffffffffffffffff1916827bffffffffffffffffffffffffffffffffffffffffffffffffffffffff1916149050919050565b6119908161198b611a84565b611cca565b50565b600061199f838361078e565b611a7957600180600085815260200190815260200160002060000160008473ffffffffffffffffffffffffffffffffffffffff1673ffffffffffffffffffffffffffffffffffffffff16815260200190815260200160002060006101000a81548160ff021916908315150217905550611a16611a84565b73ffffffffffffffffffffffffffffffffffffffff168273ffffffffffffffffffffffffffffffffffffffff16847f2f8788117e7eff1d82e926ec794901d17c78024a50270940304540a733656f0d60405160405180910390a460019050611a7e565b600090505b92915050565b600033905090565b6000611a98838361078e565b15611b745760006001600085815260200190815260200160002060000160008473ffffffffffffffffffffffffffffffffffffffff1673ffffffffffffffffffffffffffffffffffffffff16815260200190815260200160002060006101000a81548160ff021916908315150217905550611b11611a84565b73ffffffffffffffffffffffffffffffffffffffff168273ffffffffffffffffffffffffffffffffffffffff16847ff6391f5c32d9c69d2a47ea670b442974b53935d1edc7fd64eb21e047a839171b60405160405180910390a460019050611b79565b600090505b92915050565b611b87611a84565b73ffffffffffffffffffffffffffffffffffffffff16611ba5610765565b73ffffffffffffffffffffffffffffffffffffffff1614611c0457611bc8611a84565b6040517f118cdaa7000000000000000000000000000000000000000000000000000000008152600401611bfb9190612052565b60405180910390fd5b565b60008060009054906101000a900473ffffffffffffffffffffffffffffffffffffffff169050816000806101000a81548173ffffffffffffffffffffffffffffffffffffffff021916908373ffffffffffffffffffffffffffffffffffffffff1602179055508173ffffffffffffffffffffffffffffffffffffffff168173ffffffffffffffffffffffffffffffffffffffff167f8be0079c531659141344cd1fd0a4f28419497f9722a3daafe3b4186f6b6457e060405160405180910390a35050565b611cd4828261078e565b611d175780826040517fe2517d3f000000000000000000000000000000000000000000000000000000008152600401611d0e929190612a7b565b60405180910390fd5b5050565b6040518060800160405280600081526020016000815260200160008152602001600081525090565b6040518060a0016040528060008152602001600081526020016000815260200160008152602001600073ffffffffffffffffffffffffffffffffffffffff1681525090565b600080fd5b60007fffffffff0000000000000000000000000000000000000000000000000000000082169050919050565b611dc281611d8d565b8114611dcd57600080fd5b50565b600081359050611ddf81611db9565b92915050565b600060208284031215611dfb57611dfa611d88565b5b6000611e0984828501611dd0565b91505092915050565b60008115159050919050565b611e2781611e12565b82525050565b6000602082019050611e426000830184611e1e565b92915050565b6000819050919050565b611e5b81611e48565b8114611e6657600080fd5b50565b600081359050611e7881611e52565b92915050565b600060208284031215611e9457611e93611d88565b5b6000611ea284828501611e69565b91505092915050565b6000819050919050565b611ebe81611eab565b8114611ec957600080fd5b50565b600081359050611edb81611eb5565b92915050565b600060208284031215611ef757611ef6611d88565b5b6000611f0584828501611ecc565b91505092915050565b611f1781611eab565b82525050565b6000602082019050611f326000830184611f0e565b92915050565b600073ffffffffffffffffffffffffffffffffffffffff82169050919050565b6000611f6382611f38565b9050919050565b611f7381611f58565b8114611f7e57600080fd5b50565b600081359050611f9081611f6a565b92915050565b60008060408385031215611fad57611fac611d88565b5b6000611fbb85828601611ecc565b9250506020611fcc85828601611f81565b9150509250929050565b611fdf81611e48565b82525050565b6000819050919050565b611ff881611fe5565b82525050565b60006080820190506120136000830187611fd6565b6120206020830186611fd6565b61202d6040830185611fd6565b61203a6060830184611fef565b95945050505050565b61204c81611f58565b82525050565b60006020820190506120676000830184612043565b92915050565b61207681611e48565b82525050565b61208581611fe5565b82525050565b6080820160008201516120a1600085018261206d565b5060208201516120b4602085018261206d565b5060408201516120c7604085018261206d565b5060608201516120da606085018261207c565b50505050565b60006080820190506120f5600083018461208b565b92915050565b60006020828403121561211157612110611d88565b5b600061211f84828501611f81565b91505092915050565b61213181611fe5565b811461213c57600080fd5b50565b60008135905061214e81612128565b92915050565b6000806000806080858703121561216e5761216d611d88565b5b600061217c87828801611e69565b945050602061218d87828801611e69565b935050604061219e87828801611e69565b92505060606121af8782880161213f565b91505092959194509250565b600080604083850312156121d2576121d1611d88565b5b60006121e085828601611e69565b92505060206121f185828601611e69565b9150509250929050565b60006020820190506122106000830184611fd6565b92915050565b600060a08201905061222b6000830188611fd6565b6122386020830187611fd6565b6122456040830186611fd6565b6122526060830185611fd6565b61225f6080830184612043565b9695505050505050565b600080604083850312156122805761227f611d88565b5b600061228e85828601611f81565b925050602061229f85828601611e69565b9150509250929050565b6122b281611f58565b82525050565b60a0820160008201516122ce600085018261206d565b5060208201516122e1602085018261206d565b5060408201516122f4604085018261206d565b506060820151612307606085018261206d565b50608082015161231a60808501826122a9565b50505050565b600060a08201905061233560008301846122b8565b92915050565b600082825260208201905092915050565b7f796f7520646f6e742068617665206465706f7369740000000000000000000000600082015250565b600061238260158361233b565b915061238d8261234c565b602082019050919050565b600060208201905081810360008301526123b181612375565b9050919050565b7f4e487b7100000000000000000000000000000000000000000000000000000000600052601160045260246000fd5b60006123f282611e48565b91506123fd83611e48565b9250828201905080821115612415576124146123b8565b5b92915050565b60006040820190506124306000830185612043565b61243d6020830184611fd6565b9392505050565b61244d81611e12565b811461245857600080fd5b50565b60008151905061246a81612444565b92915050565b60006020828403121561248657612485611d88565b5b60006124948482850161245b565b91505092915050565b60008160001c9050919050565b6000819050919050565b60006124c76124c28361249d565b6124aa565b9050919050565b6000819050919050565b60006124eb6124e68361249d565b6124ce565b9050919050565b608082016000808301549050612507816124b4565b612514600086018261206d565b5060018301549050612525816124b4565b612532602086018261206d565b5060028301549050612543816124b4565b612550604086018261206d565b5060038301549050612561816124d8565b61256e606086018261207c565b5050505050565b600060a08201905061258a6000830185611fd6565b61259760208301846124f2565b9392505050565b7f54686973206164647265737320646f6573206e6f74206861766520746865207260008201527f6f6c65206f662075736500000000000000000000000000000000000000000000602082015250565b60006125fa602a8361233b565b91506126058261259e565b604082019050919050565b60006020820190508181036000830152612629816125ed565b9050919050565b7f796f752063616e6e6f7420706172746963697061746520696e2074686973207060008201527f6f6f6c0000000000000000000000000000000000000000000000000000000000602082015250565b600061268c60238361233b565b915061269782612630565b604082019050919050565b600060208201905081810360008301526126bb8161267f565b9050919050565b60006040820190506126d76000830185612043565b6126e46020830184612043565b9392505050565b6000815190506126fa81611e52565b92915050565b60006020828403121561271657612715611d88565b5b6000612724848285016126eb565b91505092915050565b7f546f6b656e20616c6c6f77616e636520746f6f20736d616c6c00000000000000600082015250565b600061276360198361233b565b915061276e8261272d565b602082019050919050565b6000602082019050818103600083015261279281612756565b9050919050565b7f546f6b656e2062616c616e636520746f6f20736d616c6c000000000000000000600082015250565b60006127cf60178361233b565b91506127da82612799565b602082019050919050565b600060208201905081810360008301526127fe816127c2565b9050919050565b600060608201905061281a6000830186612043565b6128276020830185612043565b6128346040830184611fd6565b949350505050565b600061284782611e48565b915061285283611e48565b925082820261286081611e48565b91508282048414831517612877576128766123b8565b5b5092915050565b7f4e487b7100000000000000000000000000000000000000000000000000000000600052601260045260246000fd5b60006128b882611e48565b91506128c383611e48565b9250826128d3576128d261287e565b5b828204905092915050565b60006128e982611e48565b91507fffffffffffffffffffffffffffffffffffffffffffffffffffffffffffffffff820361291b5761291a6123b8565b5b600182019050919050565b600060c08201905061293b6000830186611fd6565b61294860208301856124f2565b61295560a0830184611fd6565b949350505050565b6000610160820190506129736000830187611fd6565b6129806020830186611fd6565b61298d60408301856124f2565b61299a60c08301846122b8565b95945050505050565b7f496e76616c696420616464726573730000000000000000000000000000000000600082015250565b60006129d9600f8361233b565b91506129e4826129a3565b602082019050919050565b60006020820190508181036000830152612a08816129cc565b9050919050565b7f526f6c6520616c7265616479206772616e746564000000000000000000000000600082015250565b6000612a4560148361233b565b9150612a5082612a0f565b602082019050919050565b60006020820190508181036000830152612a7481612a38565b9050919050565b6000604082019050612a906000830185612043565b612a9d6020830184611f0e565b939250505056fea26469706673582212202dd890dad5e5816e24f5095c9341e043c281968c86ebf58f0f1a167c4a1c36e264736f6c63430008140033",
  "linkReferences": {},
  "deployedLinkReferences": {}
}