{
  "_format": "hh-sol-artifact-1",
  "contractName": "STLToken",
  "sourceName": "contracts/STLToken.sol",
  "abi": [
    {
      "inputs": [
        {
          "internalType": "uint256",
          "name": "initialSupply",
          "type": "uint256"
        }
      ],
      "stateMutability": "nonpayable",
      "type": "constructor"
    },
    {
      "inputs": [],
      "name": "AccessControlBadConfirmation",
      "type": "error"
    },
    {
      "inputs": [
        {
          "internalType": "address",
          "name": "account",
          "type": "address"
        },
        {
          "internalType": "bytes32",
          "name": "neededRole",
          "type": "bytes32"
        }
      ],
      "name": "AccessControlUnauthorizedAccount",
      "type": "error"
    },
    {
      "inputs": [
        {
          "internalType": "address",
          "name": "spender",
          "type": "address"
        },
        {
          "internalType": "uint256",
          "name": "allowance",
          "type": "uint256"
        },
        {
          "internalType": "uint256",
          "name": "needed",
          "type": "uint256"
        }
      ],
      "name": "ERC20InsufficientAllowance",
      "type": "error"
    },
    {
      "inputs": [
        {
          "internalType": "address",
          "name": "sender",
          "type": "address"
        },
        {
          "internalType": "uint256",
          "name": "balance",
          "type": "uint256"
        },
        {
          "internalType": "uint256",
          "name": "needed",
          "type": "uint256"
        }
      ],
      "name": "ERC20InsufficientBalance",
      "type": "error"
    },
    {
      "inputs": [
        {
          "internalType": "address",
          "name": "approver",
          "type": "address"
        }
      ],
      "name": "ERC20InvalidApprover",
      "type": "error"
    },
    {
      "inputs": [
        {
          "internalType": "address",
          "name": "receiver",
          "type": "address"
        }
      ],
      "name": "ERC20InvalidReceiver",
      "type": "error"
    },
    {
      "inputs": [
        {
          "internalType": "address",
          "name": "sender",
          "type": "address"
        }
      ],
      "name": "ERC20InvalidSender",
      "type": "error"
    },
    {
      "inputs": [
        {
          "internalType": "address",
          "name": "spender",
          "type": "address"
        }
      ],
      "name": "ERC20InvalidSpender",
      "type": "error"
    },
    {
      "inputs": [
        {
          "internalType": "address",
          "name": "owner",
          "type": "address"
        }
      ],
      "name": "OwnableInvalidOwner",
      "type": "error"
    },
    {
      "inputs": [
        {
          "internalType": "address",
          "name": "account",
          "type": "address"
        }
      ],
      "name": "OwnableUnauthorizedAccount",
      "type": "error"
    },
    {
      "anonymous": false,
      "inputs": [
        {
          "indexed": true,
          "internalType": "address",
          "name": "owner",
          "type": "address"
        },
        {
          "indexed": true,
          "internalType": "address",
          "name": "spender",
          "type": "address"
        },
        {
          "indexed": false,
          "internalType": "uint256",
          "name": "value",
          "type": "uint256"
        }
      ],
      "name": "Approval",
      "type": "event"
    },
    {
      "anonymous": false,
      "inputs": [
        {
          "indexed": true,
          "internalType": "address",
          "name": "previousOwner",
          "type": "address"
        },
        {
          "indexed": true,
          "internalType": "address",
          "name": "newOwner",
          "type": "address"
        }
      ],
      "name": "OwnershipTransferred",
      "type": "event"
    },
    {
      "anonymous": false,
      "inputs": [
        {
          "indexed": true,
          "internalType": "bytes32",
          "name": "role",
          "type": "bytes32"
        },
        {
          "indexed": true,
          "internalType": "bytes32",
          "name": "previousAdminRole",
          "type": "bytes32"
        },
        {
          "indexed": true,
          "internalType": "bytes32",
          "name": "newAdminRole",
          "type": "bytes32"
        }
      ],
      "name": "RoleAdminChanged",
      "type": "event"
    },
    {
      "anonymous": false,
      "inputs": [
        {
          "indexed": true,
          "internalType": "bytes32",
          "name": "role",
          "type": "bytes32"
        },
        {
          "indexed": true,
          "internalType": "address",
          "name": "account",
          "type": "address"
        },
        {
          "indexed": true,
          "internalType": "address",
          "name": "sender",
          "type": "address"
        }
      ],
      "name": "RoleGranted",
      "type": "event"
    },
    {
      "anonymous": false,
      "inputs": [
        {
          "indexed": true,
          "internalType": "bytes32",
          "name": "role",
          "type": "bytes32"
        },
        {
          "indexed": true,
          "internalType": "address",
          "name": "account",
          "type": "address"
        },
        {
          "indexed": true,
          "internalType": "address",
          "name": "sender",
          "type": "address"
        }
      ],
      "name": "RoleRevoked",
      "type": "event"
    },
    {
      "anonymous": false,
      "inputs": [
        {
          "indexed": true,
          "internalType": "address",
          "name": "from",
          "type": "address"
        },
        {
          "indexed": true,
          "internalType": "address",
          "name": "to",
          "type": "address"
        },
        {
          "indexed": false,
          "internalType": "uint256",
          "name": "value",
          "type": "uint256"
        }
      ],
      "name": "Transfer",
      "type": "event"
    },
    {
      "inputs": [],
      "name": "DEFAULT_ADMIN_ROLE",
      "outputs": [
        {
          "internalType": "bytes32",
          "name": "",
          "type": "bytes32"
        }
      ],
      "stateMutability": "view",
      "type": "function"
    },
    {
      "inputs": [],
      "name": "USE_ROLE",
      "outputs": [
        {
          "internalType": "bytes32",
          "name": "",
          "type": "bytes32"
        }
      ],
      "stateMutability": "view",
      "type": "function"
    },
    {
      "inputs": [
        {
          "internalType": "address",
          "name": "owner",
          "type": "address"
        },
        {
          "internalType": "address",
          "name": "spender",
          "type": "address"
        }
      ],
      "name": "allowance",
      "outputs": [
        {
          "internalType": "uint256",
          "name": "",
          "type": "uint256"
        }
      ],
      "stateMutability": "view",
      "type": "function"
    },
    {
      "inputs": [
        {
          "internalType": "address",
          "name": "spender",
          "type": "address"
        },
        {
          "internalType": "uint256",
          "name": "value",
          "type": "uint256"
        }
      ],
      "name": "approve",
      "outputs": [
        {
          "internalType": "bool",
          "name": "",
          "type": "bool"
        }
      ],
      "stateMutability": "nonpayable",
      "type": "function"
    },
    {
      "inputs": [
        {
          "internalType": "address",
          "name": "account",
          "type": "address"
        }
      ],
      "name": "balanceOf",
      "outputs": [
        {
          "internalType": "uint256",
          "name": "",
          "type": "uint256"
        }
      ],
      "stateMutability": "view",
      "type": "function"
    },
    {
      "inputs": [],
      "name": "decimals",
      "outputs": [
        {
          "internalType": "uint8",
          "name": "",
          "type": "uint8"
        }
      ],
      "stateMutability": "view",
      "type": "function"
    },
    {
      "inputs": [
        {
          "internalType": "bytes32",
          "name": "role",
          "type": "bytes32"
        }
      ],
      "name": "getRoleAdmin",
      "outputs": [
        {
          "internalType": "bytes32",
          "name": "",
          "type": "bytes32"
        }
      ],
      "stateMutability": "view",
      "type": "function"
    },
    {
      "inputs": [
        {
          "internalType": "bytes32",
          "name": "role",
          "type": "bytes32"
        },
        {
          "internalType": "address",
          "name": "account",
          "type": "address"
        }
      ],
      "name": "grantRole",
      "outputs": [],
      "stateMutability": "nonpayable",
      "type": "function"
    },
    {
      "inputs": [
        {
          "internalType": "address",
          "name": "_to",
          "type": "address"
        }
      ],
      "name": "grantRoleUse",
      "outputs": [],
      "stateMutability": "nonpayable",
      "type": "function"
    },
    {
      "inputs": [
        {
          "internalType": "bytes32",
          "name": "role",
          "type": "bytes32"
        },
        {
          "internalType": "address",
          "name": "account",
          "type": "address"
        }
      ],
      "name": "hasRole",
      "outputs": [
        {
          "internalType": "bool",
          "name": "",
          "type": "bool"
        }
      ],
      "stateMutability": "view",
      "type": "function"
    },
    {
      "inputs": [
        {
          "internalType": "address",
          "name": "to",
          "type": "address"
        },
        {
          "internalType": "uint256",
          "name": "quantity",
          "type": "uint256"
        }
      ],
      "name": "mint",
      "outputs": [],
      "stateMutability": "nonpayable",
      "type": "function"
    },
    {
      "inputs": [],
      "name": "name",
      "outputs": [
        {
          "internalType": "string",
          "name": "",
          "type": "string"
        }
      ],
      "stateMutability": "view",
      "type": "function"
    },
    {
      "inputs": [],
      "name": "owner",
      "outputs": [
        {
          "internalType": "address",
          "name": "",
          "type": "address"
        }
      ],
      "stateMutability": "view",
      "type": "function"
    },
    {
      "inputs": [],
      "name": "renounceOwnership",
      "outputs": [],
      "stateMutability": "nonpayable",
      "type": "function"
    },
    {
      "inputs": [
        {
          "internalType": "bytes32",
          "name": "role",
          "type": "bytes32"
        },
        {
          "internalType": "address",
          "name": "callerConfirmation",
          "type": "address"
        }
      ],
      "name": "renounceRole",
      "outputs": [],
      "stateMutability": "nonpayable",
      "type": "function"
    },
    {
      "inputs": [
        {
          "internalType": "bytes32",
          "name": "role",
          "type": "bytes32"
        },
        {
          "internalType": "address",
          "name": "account",
          "type": "address"
        }
      ],
      "name": "revokeRole",
      "outputs": [],
      "stateMutability": "nonpayable",
      "type": "function"
    },
    {
      "inputs": [
        {
          "internalType": "address",
          "name": "_to",
          "type": "address"
        }
      ],
      "name": "revokeRoleUse",
      "outputs": [],
      "stateMutability": "nonpayable",
      "type": "function"
    },
    {
      "inputs": [
        {
          "internalType": "bytes4",
          "name": "interfaceId",
          "type": "bytes4"
        }
      ],
      "name": "supportsInterface",
      "outputs": [
        {
          "internalType": "bool",
          "name": "",
          "type": "bool"
        }
      ],
      "stateMutability": "view",
      "type": "function"
    },
    {
      "inputs": [],
      "name": "symbol",
      "outputs": [
        {
          "internalType": "string",
          "name": "",
          "type": "string"
        }
      ],
      "stateMutability": "view",
      "type": "function"
    },
    {
      "inputs": [],
      "name": "totalSupply",
      "outputs": [
        {
          "internalType": "uint256",
          "name": "",
          "type": "uint256"
        }
      ],
      "stateMutability": "view",
      "type": "function"
    },
    {
      "inputs": [
        {
          "internalType": "address",
          "name": "to",
          "type": "address"
        },
        {
          "internalType": "uint256",
          "name": "value",
          "type": "uint256"
        }
      ],
      "name": "transfer",
      "outputs": [
        {
          "internalType": "bool",
          "name": "",
          "type": "bool"
        }
      ],
      "stateMutability": "nonpayable",
      "type": "function"
    },
    {
      "inputs": [
        {
          "internalType": "address",
          "name": "from",
          "type": "address"
        },
        {
          "internalType": "address",
          "name": "to",
          "type": "address"
        },
        {
          "internalType": "uint256",
          "name": "value",
          "type": "uint256"
        }
      ],
      "name": "transferFrom",
      "outputs": [
        {
          "internalType": "bool",
          "name": "",
          "type": "bool"
        }
      ],
      "stateMutability": "nonpayable",
      "type": "function"
    },
    {
      "inputs": [
        {
          "internalType": "address",
          "name": "newOwner",
          "type": "address"
        }
      ],
      "name": "transferOwnership",
      "outputs": [],
      "stateMutability": "nonpayable",
      "type": "function"
    }
  ],
  "bytecode": "0x60806040523480156200001157600080fd5b50604051620028f2380380620028f2833981810160405281019062000037919062000710565b336040518060400160405280600881526020017f53544c546f6b656e0000000000000000000000000000000000000000000000008152506040518060400160405280600381526020017f53544c00000000000000000000000000000000000000000000000000000000008152508160039081620000b59190620009b2565b508060049081620000c79190620009b2565b505050600073ffffffffffffffffffffffffffffffffffffffff168173ffffffffffffffffffffffffffffffffffffffff16036200013f5760006040517f1e4fbdf700000000000000000000000000000000000000000000000000000000815260040162000136919062000ade565b60405180910390fd5b6200015081620001d660201b60201c565b506200017833670de0b6b3a7640000836200016c919062000b2a565b6200029c60201b60201c565b6200018d6000801b336200032960201b60201c565b5033600760006101000a81548173ffffffffffffffffffffffffffffffffffffffff021916908373ffffffffffffffffffffffffffffffffffffffff1602179055505062000c1b565b6000600560009054906101000a900473ffffffffffffffffffffffffffffffffffffffff16905081600560006101000a81548173ffffffffffffffffffffffffffffffffffffffff021916908373ffffffffffffffffffffffffffffffffffffffff1602179055508173ffffffffffffffffffffffffffffffffffffffff168173ffffffffffffffffffffffffffffffffffffffff167f8be0079c531659141344cd1fd0a4f28419497f9722a3daafe3b4186f6b6457e060405160405180910390a35050565b600073ffffffffffffffffffffffffffffffffffffffff168273ffffffffffffffffffffffffffffffffffffffff1603620003115760006040517fec442f0500000000000000000000000000000000000000000000000000000000815260040162000308919062000ade565b60405180910390fd5b62000325600083836200042d60201b60201c565b5050565b60006200033d83836200065d60201b60201c565b620004225760016006600085815260200190815260200160002060000160008473ffffffffffffffffffffffffffffffffffffffff1673ffffffffffffffffffffffffffffffffffffffff16815260200190815260200160002060006101000a81548160ff021916908315150217905550620003be620006c860201b60201c565b73ffffffffffffffffffffffffffffffffffffffff168273ffffffffffffffffffffffffffffffffffffffff16847f2f8788117e7eff1d82e926ec794901d17c78024a50270940304540a733656f0d60405160405180910390a46001905062000427565b600090505b92915050565b600073ffffffffffffffffffffffffffffffffffffffff168373ffffffffffffffffffffffffffffffffffffffff16036200048357806002600082825462000476919062000b75565b9250508190555062000559565b60008060008573ffffffffffffffffffffffffffffffffffffffff1673ffffffffffffffffffffffffffffffffffffffff1681526020019081526020016000205490508181101562000512578381836040517fe450d38c000000000000000000000000000000000000000000000000000000008152600401620005099392919062000bc1565b60405180910390fd5b8181036000808673ffffffffffffffffffffffffffffffffffffffff1673ffffffffffffffffffffffffffffffffffffffff16815260200190815260200160002081905550505b600073ffffffffffffffffffffffffffffffffffffffff168273ffffffffffffffffffffffffffffffffffffffff1603620005a45780600260008282540392505081905550620005f1565b806000808473ffffffffffffffffffffffffffffffffffffffff1673ffffffffffffffffffffffffffffffffffffffff168152602001908152602001600020600082825401925050819055505b8173ffffffffffffffffffffffffffffffffffffffff168373ffffffffffffffffffffffffffffffffffffffff167fddf252ad1be2c89b69c2b068fc378daa952ba7f163c4a11628f55a4df523b3ef8360405162000650919062000bfe565b60405180910390a3505050565b60006006600084815260200190815260200160002060000160008373ffffffffffffffffffffffffffffffffffffffff1673ffffffffffffffffffffffffffffffffffffffff16815260200190815260200160002060009054906101000a900460ff16905092915050565b600033905090565b600080fd5b6000819050919050565b620006ea81620006d5565b8114620006f657600080fd5b50565b6000815190506200070a81620006df565b92915050565b600060208284031215620007295762000728620006d0565b5b60006200073984828501620006f9565b91505092915050565b600081519050919050565b7f4e487b7100000000000000000000000000000000000000000000000000000000600052604160045260246000fd5b7f4e487b7100000000000000000000000000000000000000000000000000000000600052602260045260246000fd5b60006002820490506001821680620007c457607f821691505b602082108103620007da57620007d96200077c565b5b50919050565b60008190508160005260206000209050919050565b60006020601f8301049050919050565b600082821b905092915050565b600060088302620008447fffffffffffffffffffffffffffffffffffffffffffffffffffffffffffffffff8262000805565b62000850868362000805565b95508019841693508086168417925050509392505050565b6000819050919050565b6000620008936200088d6200088784620006d5565b62000868565b620006d5565b9050919050565b6000819050919050565b620008af8362000872565b620008c7620008be826200089a565b84845462000812565b825550505050565b600090565b620008de620008cf565b620008eb818484620008a4565b505050565b5b81811015620009135762000907600082620008d4565b600181019050620008f1565b5050565b601f82111562000962576200092c81620007e0565b6200093784620007f5565b8101602085101562000947578190505b6200095f6200095685620007f5565b830182620008f0565b50505b505050565b600082821c905092915050565b6000620009876000198460080262000967565b1980831691505092915050565b6000620009a2838362000974565b9150826002028217905092915050565b620009bd8262000742565b67ffffffffffffffff811115620009d957620009d86200074d565b5b620009e58254620007ab565b620009f282828562000917565b600060209050601f83116001811462000a2a576000841562000a15578287015190505b62000a21858262000994565b86555062000a91565b601f19841662000a3a86620007e0565b60005b8281101562000a645784890151825560018201915060208501945060208101905062000a3d565b8683101562000a84578489015162000a80601f89168262000974565b8355505b6001600288020188555050505b505050505050565b600073ffffffffffffffffffffffffffffffffffffffff82169050919050565b600062000ac68262000a99565b9050919050565b62000ad88162000ab9565b82525050565b600060208201905062000af5600083018462000acd565b92915050565b7f4e487b7100000000000000000000000000000000000000000000000000000000600052601160045260246000fd5b600062000b3782620006d5565b915062000b4483620006d5565b925082820262000b5481620006d5565b9150828204841483151762000b6e5762000b6d62000afb565b5b5092915050565b600062000b8282620006d5565b915062000b8f83620006d5565b925082820190508082111562000baa5762000ba962000afb565b5b92915050565b62000bbb81620006d5565b82525050565b600060608201905062000bd8600083018662000acd565b62000be7602083018562000bb0565b62000bf6604083018462000bb0565b949350505050565b600060208201905062000c15600083018462000bb0565b92915050565b611cc78062000c2b6000396000f3fe608060405234801561001057600080fd5b506004361061014d5760003560e01c8063715018a6116100c3578063a9059cbb1161007c578063a9059cbb146103a0578063aa91dd8d146103d0578063d547741f146103ee578063dd62ed3e1461040a578063e5438a371461043a578063f2fde38b146104565761014d565b8063715018a6146102f05780638da5cb5b146102fa57806391d148541461031857806395d89b4114610348578063a217fddf14610366578063a8497311146103845761014d565b8063248a9ca311610115578063248a9ca31461021e5780632f2ff15d1461024e578063313ce5671461026a57806336568abe1461028857806340c10f19146102a457806370a08231146102c05761014d565b806301ffc9a71461015257806306fdde0314610182578063095ea7b3146101a057806318160ddd146101d057806323b872dd146101ee575b600080fd5b61016c60048036038101906101679190611603565b610472565b604051610179919061164b565b60405180910390f35b61018a6104ec565b60405161019791906116f6565b60405180910390f35b6101ba60048036038101906101b591906117ac565b61057e565b6040516101c7919061164b565b60405180910390f35b6101d86105a1565b6040516101e591906117fb565b60405180910390f35b61020860048036038101906102039190611816565b6105ab565b604051610215919061164b565b60405180910390f35b6102386004803603810190610233919061189f565b6105da565b60405161024591906118db565b60405180910390f35b610268600480360381019061026391906118f6565b6105fa565b005b61027261061c565b60405161027f9190611952565b60405180910390f35b6102a2600480360381019061029d91906118f6565b610625565b005b6102be60048036038101906102b991906117ac565b6106a0565b005b6102da60048036038101906102d5919061196d565b6106d9565b6040516102e791906117fb565b60405180910390f35b6102f8610721565b005b610302610735565b60405161030f91906119a9565b60405180910390f35b610332600480360381019061032d91906118f6565b61075f565b60405161033f919061164b565b60405180910390f35b6103506107ca565b60405161035d91906116f6565b60405180910390f35b61036e61085c565b60405161037b91906118db565b60405180910390f35b61039e6004803603810190610399919061196d565b610863565b005b6103ba60048036038101906103b591906117ac565b610901565b6040516103c7919061164b565b60405180910390f35b6103d8610924565b6040516103e591906118db565b60405180910390f35b610408600480360381019061040391906118f6565b610948565b005b610424600480360381019061041f91906119c4565b61096a565b60405161043191906117fb565b60405180910390f35b610454600480360381019061044f919061196d565b6109f1565b005b610470600480360381019061046b919061196d565b610aff565b005b60007f7965db0b000000000000000000000000000000000000000000000000000000007bffffffffffffffffffffffffffffffffffffffffffffffffffffffff1916827bffffffffffffffffffffffffffffffffffffffffffffffffffffffff191614806104e557506104e482610b85565b5b9050919050565b6060600380546104fb90611a33565b80601f016020809104026020016040519081016040528092919081815260200182805461052790611a33565b80156105745780601f1061054957610100808354040283529160200191610574565b820191906000526020600020905b81548152906001019060200180831161055757829003601f168201915b5050505050905090565b600080610589610bef565b9050610596818585610bf7565b600191505092915050565b6000600254905090565b6000806105b6610bef565b90506105c3858285610c09565b6105ce858585610c9d565b60019150509392505050565b600060066000838152602001908152602001600020600101549050919050565b610603826105da565b61060c81610d91565b6106168383610da5565b50505050565b60006012905090565b61062d610bef565b73ffffffffffffffffffffffffffffffffffffffff168173ffffffffffffffffffffffffffffffffffffffff1614610691576040517f6697b23200000000000000000000000000000000000000000000000000000000815260040160405180910390fd5b61069b8282610e97565b505050565b7fc95fb6d1b7a486ccf74d60bc813ac64df792d1b1dde36e9f5c4832bf907762fd6106ca81610d91565b6106d48383610f8a565b505050565b60008060008373ffffffffffffffffffffffffffffffffffffffff1673ffffffffffffffffffffffffffffffffffffffff168152602001908152602001600020549050919050565b61072961100c565b6107336000611093565b565b6000600560009054906101000a900473ffffffffffffffffffffffffffffffffffffffff16905090565b60006006600084815260200190815260200160002060000160008373ffffffffffffffffffffffffffffffffffffffff1673ffffffffffffffffffffffffffffffffffffffff16815260200190815260200160002060009054906101000a900460ff16905092915050565b6060600480546107d990611a33565b80601f016020809104026020016040519081016040528092919081815260200182805461080590611a33565b80156108525780601f1061082757610100808354040283529160200191610852565b820191906000526020600020905b81548152906001019060200180831161083557829003601f168201915b5050505050905090565b6000801b81565b61086b61100c565b6108957fc95fb6d1b7a486ccf74d60bc813ac64df792d1b1dde36e9f5c4832bf907762fd8261075f565b6108d4576040517f08c379a00000000000000000000000000000000000000000000000000000000081526004016108cb90611ad6565b60405180910390fd5b6108fe7fc95fb6d1b7a486ccf74d60bc813ac64df792d1b1dde36e9f5c4832bf907762fd82610948565b50565b60008061090c610bef565b9050610919818585610c9d565b600191505092915050565b7fc95fb6d1b7a486ccf74d60bc813ac64df792d1b1dde36e9f5c4832bf907762fd81565b610951826105da565b61095a81610d91565b6109648383610e97565b50505050565b6000600160008473ffffffffffffffffffffffffffffffffffffffff1673ffffffffffffffffffffffffffffffffffffffff16815260200190815260200160002060008373ffffffffffffffffffffffffffffffffffffffff1673ffffffffffffffffffffffffffffffffffffffff16815260200190815260200160002054905092915050565b6109f961100c565b600073ffffffffffffffffffffffffffffffffffffffff168173ffffffffffffffffffffffffffffffffffffffff1603610a68576040517f08c379a0000000000000000000000000000000000000000000000000000000008152600401610a5f90611b42565b60405180910390fd5b610a927fc95fb6d1b7a486ccf74d60bc813ac64df792d1b1dde36e9f5c4832bf907762fd8261075f565b15610ad2576040517f08c379a0000000000000000000000000000000000000000000000000000000008152600401610ac990611bae565b60405180910390fd5b610afc7fc95fb6d1b7a486ccf74d60bc813ac64df792d1b1dde36e9f5c4832bf907762fd826105fa565b50565b610b0761100c565b600073ffffffffffffffffffffffffffffffffffffffff168173ffffffffffffffffffffffffffffffffffffffff1603610b795760006040517f1e4fbdf7000000000000000000000000000000000000000000000000000000008152600401610b7091906119a9565b60405180910390fd5b610b8281611093565b50565b60007f01ffc9a7000000000000000000000000000000000000000000000000000000007bffffffffffffffffffffffffffffffffffffffffffffffffffffffff1916827bffffffffffffffffffffffffffffffffffffffffffffffffffffffff1916149050919050565b600033905090565b610c048383836001611159565b505050565b6000610c15848461096a565b90507fffffffffffffffffffffffffffffffffffffffffffffffffffffffffffffffff8114610c975781811015610c87578281836040517ffb8f41b2000000000000000000000000000000000000000000000000000000008152600401610c7e93929190611bce565b60405180910390fd5b610c9684848484036000611159565b5b50505050565b600073ffffffffffffffffffffffffffffffffffffffff168373ffffffffffffffffffffffffffffffffffffffff1603610d0f5760006040517f96c6fd1e000000000000000000000000000000000000000000000000000000008152600401610d0691906119a9565b60405180910390fd5b600073ffffffffffffffffffffffffffffffffffffffff168273ffffffffffffffffffffffffffffffffffffffff1603610d815760006040517fec442f05000000000000000000000000000000000000000000000000000000008152600401610d7891906119a9565b60405180910390fd5b610d8c838383611330565b505050565b610da281610d9d610bef565b611555565b50565b6000610db1838361075f565b610e8c5760016006600085815260200190815260200160002060000160008473ffffffffffffffffffffffffffffffffffffffff1673ffffffffffffffffffffffffffffffffffffffff16815260200190815260200160002060006101000a81548160ff021916908315150217905550610e29610bef565b73ffffffffffffffffffffffffffffffffffffffff168273ffffffffffffffffffffffffffffffffffffffff16847f2f8788117e7eff1d82e926ec794901d17c78024a50270940304540a733656f0d60405160405180910390a460019050610e91565b600090505b92915050565b6000610ea3838361075f565b15610f7f5760006006600085815260200190815260200160002060000160008473ffffffffffffffffffffffffffffffffffffffff1673ffffffffffffffffffffffffffffffffffffffff16815260200190815260200160002060006101000a81548160ff021916908315150217905550610f1c610bef565b73ffffffffffffffffffffffffffffffffffffffff168273ffffffffffffffffffffffffffffffffffffffff16847ff6391f5c32d9c69d2a47ea670b442974b53935d1edc7fd64eb21e047a839171b60405160405180910390a460019050610f84565b600090505b92915050565b600073ffffffffffffffffffffffffffffffffffffffff168273ffffffffffffffffffffffffffffffffffffffff1603610ffc5760006040517fec442f05000000000000000000000000000000000000000000000000000000008152600401610ff391906119a9565b60405180910390fd5b61100860008383611330565b5050565b611014610bef565b73ffffffffffffffffffffffffffffffffffffffff16611032610735565b73ffffffffffffffffffffffffffffffffffffffff161461109157611055610bef565b6040517f118cdaa700000000000000000000000000000000000000000000000000000000815260040161108891906119a9565b60405180910390fd5b565b6000600560009054906101000a900473ffffffffffffffffffffffffffffffffffffffff16905081600560006101000a81548173ffffffffffffffffffffffffffffffffffffffff021916908373ffffffffffffffffffffffffffffffffffffffff1602179055508173ffffffffffffffffffffffffffffffffffffffff168173ffffffffffffffffffffffffffffffffffffffff167f8be0079c531659141344cd1fd0a4f28419497f9722a3daafe3b4186f6b6457e060405160405180910390a35050565b600073ffffffffffffffffffffffffffffffffffffffff168473ffffffffffffffffffffffffffffffffffffffff16036111cb5760006040517fe602df050000000000000000000000000000000000000000000000000000000081526004016111c291906119a9565b60405180910390fd5b600073ffffffffffffffffffffffffffffffffffffffff168373ffffffffffffffffffffffffffffffffffffffff160361123d5760006040517f94280d6200000000000000000000000000000000000000000000000000000000815260040161123491906119a9565b60405180910390fd5b81600160008673ffffffffffffffffffffffffffffffffffffffff1673ffffffffffffffffffffffffffffffffffffffff16815260200190815260200160002060008573ffffffffffffffffffffffffffffffffffffffff1673ffffffffffffffffffffffffffffffffffffffff16815260200190815260200160002081905550801561132a578273ffffffffffffffffffffffffffffffffffffffff168473ffffffffffffffffffffffffffffffffffffffff167f8c5be1e5ebec7d5bd14f71427d1e84f3dd0314c0f7b2291e5b200ac8c7c3b9258460405161132191906117fb565b60405180910390a35b50505050565b600073ffffffffffffffffffffffffffffffffffffffff168373ffffffffffffffffffffffffffffffffffffffff16036113825780600260008282546113769190611c34565b92505081905550611455565b60008060008573ffffffffffffffffffffffffffffffffffffffff1673ffffffffffffffffffffffffffffffffffffffff1681526020019081526020016000205490508181101561140e578381836040517fe450d38c00000000000000000000000000000000000000000000000000000000815260040161140593929190611bce565b60405180910390fd5b8181036000808673ffffffffffffffffffffffffffffffffffffffff1673ffffffffffffffffffffffffffffffffffffffff16815260200190815260200160002081905550505b600073ffffffffffffffffffffffffffffffffffffffff168273ffffffffffffffffffffffffffffffffffffffff160361149e57806002600082825403925050819055506114eb565b806000808473ffffffffffffffffffffffffffffffffffffffff1673ffffffffffffffffffffffffffffffffffffffff168152602001908152602001600020600082825401925050819055505b8173ffffffffffffffffffffffffffffffffffffffff168373ffffffffffffffffffffffffffffffffffffffff167fddf252ad1be2c89b69c2b068fc378daa952ba7f163c4a11628f55a4df523b3ef8360405161154891906117fb565b60405180910390a3505050565b61155f828261075f565b6115a25780826040517fe2517d3f000000000000000000000000000000000000000000000000000000008152600401611599929190611c68565b60405180910390fd5b5050565b600080fd5b60007fffffffff0000000000000000000000000000000000000000000000000000000082169050919050565b6115e0816115ab565b81146115eb57600080fd5b50565b6000813590506115fd816115d7565b92915050565b600060208284031215611619576116186115a6565b5b6000611627848285016115ee565b91505092915050565b60008115159050919050565b61164581611630565b82525050565b6000602082019050611660600083018461163c565b92915050565b600081519050919050565b600082825260208201905092915050565b60005b838110156116a0578082015181840152602081019050611685565b60008484015250505050565b6000601f19601f8301169050919050565b60006116c882611666565b6116d28185611671565b93506116e2818560208601611682565b6116eb816116ac565b840191505092915050565b6000602082019050818103600083015261171081846116bd565b905092915050565b600073ffffffffffffffffffffffffffffffffffffffff82169050919050565b600061174382611718565b9050919050565b61175381611738565b811461175e57600080fd5b50565b6000813590506117708161174a565b92915050565b6000819050919050565b61178981611776565b811461179457600080fd5b50565b6000813590506117a681611780565b92915050565b600080604083850312156117c3576117c26115a6565b5b60006117d185828601611761565b92505060206117e285828601611797565b9150509250929050565b6117f581611776565b82525050565b600060208201905061181060008301846117ec565b92915050565b60008060006060848603121561182f5761182e6115a6565b5b600061183d86828701611761565b935050602061184e86828701611761565b925050604061185f86828701611797565b9150509250925092565b6000819050919050565b61187c81611869565b811461188757600080fd5b50565b60008135905061189981611873565b92915050565b6000602082840312156118b5576118b46115a6565b5b60006118c38482850161188a565b91505092915050565b6118d581611869565b82525050565b60006020820190506118f060008301846118cc565b92915050565b6000806040838503121561190d5761190c6115a6565b5b600061191b8582860161188a565b925050602061192c85828601611761565b9150509250929050565b600060ff82169050919050565b61194c81611936565b82525050565b60006020820190506119676000830184611943565b92915050565b600060208284031215611983576119826115a6565b5b600061199184828501611761565b91505092915050565b6119a381611738565b82525050565b60006020820190506119be600083018461199a565b92915050565b600080604083850312156119db576119da6115a6565b5b60006119e985828601611761565b92505060206119fa85828601611761565b9150509250929050565b7f4e487b7100000000000000000000000000000000000000000000000000000000600052602260045260246000fd5b60006002820490506001821680611a4b57607f821691505b602082108103611a5e57611a5d611a04565b5b50919050565b7f54686973206164647265737320646f6573206e6f74206861766520746865207260008201527f6f6c65206f662075736500000000000000000000000000000000000000000000602082015250565b6000611ac0602a83611671565b9150611acb82611a64565b604082019050919050565b60006020820190508181036000830152611aef81611ab3565b9050919050565b7f496e76616c696420616464726573730000000000000000000000000000000000600082015250565b6000611b2c600f83611671565b9150611b3782611af6565b602082019050919050565b60006020820190508181036000830152611b5b81611b1f565b9050919050565b7f526f6c6520616c7265616479206772616e746564000000000000000000000000600082015250565b6000611b98601483611671565b9150611ba382611b62565b602082019050919050565b60006020820190508181036000830152611bc781611b8b565b9050919050565b6000606082019050611be3600083018661199a565b611bf060208301856117ec565b611bfd60408301846117ec565b949350505050565b7f4e487b7100000000000000000000000000000000000000000000000000000000600052601160045260246000fd5b6000611c3f82611776565b9150611c4a83611776565b9250828201905080821115611c6257611c61611c05565b5b92915050565b6000604082019050611c7d600083018561199a565b611c8a60208301846118cc565b939250505056fea264697066735822122001705ac9a37ebee50ef8c71fa0d46c3c6c53d85595caa2f38c57ff0058e5e04e64736f6c63430008140033",
  "linkReferences": {},
  "deployedLinkReferences": {}
}